:100000000C9445010C946D010C946D010C946D01E0
:100010000C946D010C946D010C946D010C946D01A8
:100020000C946D010C946D010C946D010C946D0198
:100030000C946D010C946D010C946D010C946D0188
:100040000C94DF0B0C946D010C944F0C0C94290C48
:100050000C946D010C946D010C946D010C946D0168
:100060000C94810C0C946D0152657475726E696EFE
:100070006720746F2050726576696F7573204D6FBD
:100080006465204661696C7572652E2E2E0053657D
:100090007474696E6720426175647261746520537F
:1000A00075636365737366756C2100456E74657264
:1000B000696E6720436F6E66696775726174696FF8
:1000C0006E204D6F64652053756363657373667549
:1000D0006C2100456E746572696E6720436F6E66B1
:1000E000696775726174696F6E204D6F6465204633
:1000F00061696C7572652E2E2E00656E636F646586
:100100007273636F756E7400636F6E7300667565EE
:100110006C0074656D7000626F6F7374007370654E
:1001200065646F0074616368006D637574797065F0
:10013000006C6973740000000000240027002A008E
:1001400000000000250028002B000404040404041F
:100150000404020202020202030303030303010276
:100160000408102040800102040810200102040845
:100170001020000000080002010000030407000036
:1001800000000000000000D57FAAFE2B815429FC4E
:100190005683D702A87D52872DF8AC79D3067BAE63
:1001A00004D18550FA2FA471DB0E5A8F25F08D589B
:1001B000F22773A60CD9F623895C08DD77A2DF0A43
:1001C000A07521F45E8B9D48E23763B61CC9B4610B
:1001D000CB1E4A9F35E0CF1AB06531E44E9BE63323
:1001E000994C18CD67B239EC4693C712B86D10C55B
:1001F0006FBAEE3B91446BBE14C19540EA3F429703
:100200003DE8BC69C316EF3A904511C46EBBC613F6
:10021000B96C38ED4792BD68C21743963CE99441EA
:10022000EB3E6ABF15C04B9E34E1B560CA1F62B792
:100230001DC89C49E33619CC66B3E732984D30E5CA
:100240004F9ACE1BB16472A70DD88C59F3265B8EE2
:1002500024F1A570DA0F20F55F8ADE0BA17409DCAA
:1002600076A3F722885DD603A97C28FD5782FF2A52
:10027000805501D47EAB8451FB2E7AAF05D0AD788A
:10028000D20753862CF9E20ED01711241FBECFEFF0
:10029000D8E0DEBFCDBF12E0A0E0B1E0ECE4F8E3CF
:1002A00002C005900D92AC3AB107D9F725E0ACEA4F
:1002B000B2E001C01D92A637B207E1F711E0C4E435
:1002C000D1E004C02197FE010E94101AC334D10767
:1002D000C9F70E94670F0C94191C0C9400008CBD88
:1002E0009DBD0895CF92DF92EF92FF926B017C014A
:1002F000E0915C04F0915D0482E08083C11481EEA2
:10030000D806E104F104A1F060E079E08DE390E02B
:10031000A70196010E941B19215031094109510979
:100320005695479537952795211580E13807A8F010
:10033000E0915C04F0915D04108260E874E88EE165
:1003400090E0A70196010E941B1921503109410933
:1003500051095695479537952795E0915804F091A6
:1003600059043083E0915A04F0915B042083109289
:100370006404E0916004F091610486E08083E09180
:100380005E04F0915F04808180618083E0915E046F
:10039000F0915F04808188608083E0915E04F09139
:1003A0005F04808180688083E0915E04F0915F0447
:1003B00080818F7D8083FF90EF90DF90CF900895B4
:1003C00090916F059032A1F020916E05290F33278F
:1003D000331F2032310510F0205231093327F90143
:1003E000EC5CFA4F828F9F5F90936F0581E00895D8
:1003F00080E0089520916F052223C1F0E0916E0501
:10040000F0E0EC5CFA4F228DFC01208380916E05B8
:100410008F5F80936E0590916F05915090936F055B
:10042000803211F410926E0581E0089580E0089505
:1004300090E0FC01EE58FE4F2491FC01E25AFE4F81
:100440003491FC01E65BFE4FE491EE23C9F02223D8
:1004500039F0233001F1A8F4213019F1223029F1CB
:10046000F0E0EE0FFF1FE05CFE4FA591B4918FB757
:10047000F894EC91611126C030953E233C938FBFD8
:1004800008952730A9F02830C9F0243049F7809129
:1004900080008F7D03C0809180008F7780938000E3
:1004A000DFCF84B58F7784BDDBCF84B58F7DFBCF65
:1004B0008091B0008F778093B000D2CF8091B00050
:1004C0008F7DF9CF3E2BDACFCF93DF9390E0FC0105
:1004D000E25AFE4F2491865B9E4FFC018491882353
:1004E000D1F090E0880F991FFC01EA5CFE4FA591C6
:1004F000B491FC01E05CFE4FC591D49161110EC036
:100500009FB7F8948C91E22FE0958E238C932881ED
:10051000E223E8839FBFDF91CF9108958FB7F894CE
:10052000EC91E22BEC938FBFF6CF3FB7F89480911C
:10053000380390913903A0913A03B0913B0326B55B
:10054000A89B05C02F3F19F00196A11DB11D3FBF0B
:10055000BA2FA92F982F8827BC01CD01620F711DDA
:10056000811D911D42E0660F771F881F991F4A95D4
:10057000D1F708958F929F92AF92BF92CF92DF9260
:10058000EF92FF924B015C010E9495026B017C018E
:100590000E9495026C197D098E099F09683E73407F
:1005A00081059105A8F321E0821A9108A108B108FC
:1005B00088EEC80E83E0D81EE11CF11C8114910462
:1005C000A104B10429F7FF90EF90DF90CF90BF9086
:1005D000AF909F908F9008952FB7F8946091340357
:1005E0007091350380913603909137032FBF0895A2
:1005F000089508950895AF92BF92CF92DF92EF923F
:10060000FF920F931F93CF93DF936C017B018B01BC
:10061000040F151FEB015E01AE18BF08C017D1070C
:1006200059F06991D601ED91FC910190F081E02D96
:10063000C6010995892B79F7C501DF91CF911F91EB
:100640000F91FF90EF90DF90CF90BF90AF90089503
:10065000FC01538D448D252F30E0842F90E0821BC8
:10066000930B541710F0CF96089501970895FC014D
:10067000918D828D981761F0A28DAE0FBF2FB11DA5
:100680005D968C91928D9F5F9F73928F90E00895FD
:100690008FEF9FEF0895FC01918D828D981731F0B7
:1006A000828DE80FF11D858D90E008958FEF9FEF0B
:1006B0000895FC01918D228D892F90E0805C9F4FE1
:1006C000821B91098F73992708958CE494E00E940E
:1006D000590321E0892B09F420E0822F089580E05E
:1006E00090E0892B29F00E94650381110C94000091
:1006F0000895FC01A48DA80FB92FB11DA35ABF4FB7
:100700002C91848D90E001968F739927848FA68910
:10071000B7892C93A089B1898C91837080648C9364
:10072000938D848D981306C00288F389E02D808113
:100730008F7D80830895EF92FF920F931F93CF9345
:10074000DF93EC0181E0888F9B8D8C8D98131AC00C
:10075000E889F989808185FF15C09FB7F894EE89F3
:10076000FF896083E889F989808183708064808350
:100770009FBF81E090E0DF91CF911F910F91FF909B
:10078000EF900895F62E0B8D10E00F5F1F4F0F7343
:100790001127E02E8C8D8E110CC00FB607FCFACFFE
:1007A000E889F989808185FFF5CFCE010E94790320
:1007B000F1CFEB8DEC0FFD2FF11DE35AFF4FF082CF
:1007C0009FB7F8940B8FEA89FB8980818062CFCF35
:1007D000682F8CE494E00C949B03CF93DF93EC019F
:1007E000888D8823B9F0AA89BB89E889F9898C9119
:1007F00085FD03C0808186FD0DC00FB607FCF7CFD5
:100800008C9185FFF2CF808185FFEDCFCE010E94D4
:100810007903E9CFDF91CF91089508958EBD00004F
:100820000DB407FEFDCF8EB508951F93CF93DF93D0
:10083000182F80E591E00E946F01CCEFD4E060E0DA
:100840008A890E94180283E00E940E04812F0E9470
:100850000E0480E00E940E04182F61E08A890E9435
:100860001802812FDF91CF911F910895FF920F936E
:100870001F93CF93DF93F82E062F142F80E591E07E
:100880000E946F01CCEFD4E060E08A890E941802D8
:1008900085E00E940E048F2D0E940E04802F0E947E
:1008A0000E04812F0E940E0461E08A89DF91CF91AE
:1008B0001F910F91FF900C941802CF93DF93C82FD4
:1008C0000E94EC02D62F4C2F60EE8FE00E9436047F
:1008D0008EE00E941504807EC81749F00E94EC0249
:1008E0006D1B693C80F381E0DF91CF91089580E03A
:1008F000FBCFCF93DF93C82F8EE00E941504807E3C
:100900008032F9F4C032E9F08BE20E941504D82F4E
:10091000D07486FD05C040E460E48BE20E9436049A
:1009200040E460E48CE20E94360480E60E945D04AC
:10093000811111C0D11105C040E060E48BE20E943A
:10094000360440E060E48CE20E9436048C2FDF9194
:10095000CF910C945D0481E0DF91CF910895FF92D7
:100960000F931F93CF93DF93C82FF62E172F042FCB
:1009700080E591E00E946F0160E080910E050E9489
:10098000180282E00E940E048C2F0E940E04CF2DCC
:10099000D12F0C0F1D2F111DC017D10721F08991E8
:1009A0000E940E04F9CF61E080910E05DF91CF9196
:1009B0001F910F91FF900C941802CF93DF9300D0FA
:1009C00000D0CDB7DEB71C821B82613081F498E085
:1009D0009A83198244E0BE016F5F7F4F0E94AF048B
:1009E0000F900F900F900F90DF91CF9108951A8282
:1009F000F0CF0F931F93CF93DF93082F162F80E52F
:100A000091E00E946F01CCEFD4E060E08A890E94FF
:100A1000180282E00E940E04802F0E940E04812F93
:100A20000E940E0461E08A89DF91CF911F910F919E
:100A30000C9418022F923F924F925F926F927F9286
:100A40008F929F92AF92CF92DF92EF92FF920F938D
:100A50001F93CF93DF9300D000D0CDB7DEB7609364
:100A6000FD047093FE048093FF04909300051092A0
:100A70000A051092FC0440930105F901A2E0B5E0DB
:100A8000C901089621912D93E817F907D9F70E941B
:100A900095022B013C018090AA019090AB01A0909F
:100AA000AC011E0124E0220E311C89829A82AB82A5
:100AB000CE0101966C01F82E0D2DF60111916F01FA
:100AC000812F0E94150483FD14C01F5FE12C0E943A
:100AD0009502DC01CB0184199509A609B709F2E05A
:100AE000EF120EC0843C9940A105B105F0F206E07A
:100AF0007DC0C214D30409F710E072E0E72EE7CFFF
:100B0000843C9940A105B10590F74091010562E050
:100B100075E085E0810F0E94AF0480910A05813065
:100B200029F480910105806480930105609101059D
:100B300084E0810F0E94F9044091FD045091FE046D
:100B40006091FF04709100058091FC048130D9F51B
:100B50004C835B83AB0166277727842F8370886083
:100B6000942F990F990F990F907E892B8A8365E0B6
:100B7000569547956A95E1F7498344E06F2D702FAC
:100B8000812F0E94AF04115048E068E0812F0E943D
:100B900036040E9495026B017C01812F0E9415048E
:100BA000082F08700E949502DC01CB018C199D0969
:100BB000AE09BF090023A9F0843C9940A105B10505
:100BC00060F307E013C0CA0123E0969587952A9544
:100BD000E1F789834295440F407E4A831C821B8241
:100BE000CCCF843C9940A105B10558F7802F0F90D8
:100BF0000F900F900F90DF91CF911F910F91FF9069
:100C0000EF90DF90CF90AF909F908F907F906F90FC
:100C10005F904F903F902F9008952091ED02260F06
:100C20003327331F21323105ECF420912204FC01DB
:100C300090E080E0243069F082E00895A091ED0218
:100C40002191AC0143535D4FA40FB52FB11D2C93DF
:100C50000196861798F38091ED02680F6093ED027C
:100C600080E0089581E008951092220481E080934D
:100C700021041092FC0361E082E10E94180261E00D
:100C800083E10E941802E9EBF0E080818E7F80838F
:100C900080818D7F808388E48093B80085E4809391
:100CA000BC000895CF93DF9391E09093CC0288230A
:100CB000B9F0C091B800D091BA008091BC008A7B95
:100CC0008093BC0060E082E10E94180260E083E152
:100CD0000E9418020E943406D093BA00C093B80054
:100CE000DF91CF910895CF92DF92EF92FF920F9311
:100CF0001F93CF93DF93D0914B0481E0D13208F062
:100D00009CC0C0914A040E9495026B017C018091B5
:100D1000220481116CC082E08093220481E08093E0
:100D200021048FEF8093200410921F04D0931E049F
:100D3000AAE2B4E0EEEFF3E080E0D8138DC01092A9
:100D4000FD038091FD03CC0FC82BC093FD03809160
:100D5000FC03813009F084C01092FC030E949502CC
:100D60006B017C018091FD038093BB008091240482
:100D700090912504A0912604B0912704892B8A2BF9
:100D80008B2BA1F00E949502009124041091250460
:100D900020912604309127046C197D098E099F0942
:100DA000061717072807390708F442C08091BC00CE
:100DB00083FDD8CF85EC8093BC000E9495026B0127
:100DC0007C0180912204823009F44CC0809120047F
:100DD0008F3F09F469C080912004803209F466C015
:100DE00080912004803309F463C084E026C08091A0
:100DF000240490912504A0912604B0912704892B06
:100E00008A2B8B2B09F483CF0E9495020091240436
:100E10001091250420912604309127046C197D0936
:100E20008E099F09061717072807390708F06FCFA3
:100E3000809123040E94520685E0109229041092AA
:100E40004B0410922804DF91CF911F910F91FF90D6
:100E5000EF90DF90CF9008959D9191938F5F6DCF2C
:100E600085EEA9CF8091240490912504A0912604B9
:100E7000B0912704892B8A2B8B2B09F4A2CF0E94D7
:100E800095020091240410912504209126043091AC
:100E900027046C197D098E099F0906171707280773
:100EA000390708F08ECFC4CF80E0C7CF82E0C5CF2E
:100EB00083E0C3CF0895E091150380911403E817F0
:100EC00030F4F0E0E455FD4F808190E008958FEF1D
:100ED0009FEF089590911503809114032FEF3FEF3A
:100EE000981748F4E92FF0E0E455FD4F208130E0F9
:100EF0009F5F90931503C901089580911403909109
:100F00001503891B990B0895CF92DF92EF92FF9200
:100F10000F931F93CF93DF937C01CB018A01209124
:100F20002804222389F0EB016B01C40ED51ECC15D9
:100F3000DD0569F06991D701ED91FC910190F08197
:100F4000E02DC7010995F3CF642F0E940D06C8015B
:100F5000DF91CF911F910F91FF90EF90DF90CF9095
:100F60000895CF93DF931F92CDB7DEB769832091A9
:100F700028042223F9F020914B04203258F021E07C
:100F800030E0FC013383228390E080E00F90DF911A
:100F9000CF91089580912904E82FF0E0E65DFB4FA2
:100FA000998190838F5F8093290480934B0481E023
:100FB00090E0ECCF61E0CE0101960E940D06F7CFE4
:100FC000CF93C62F91E09093280494E790934A041E
:100FD0001092290410924B04682F89EE94E00E942D
:100FE000B1076C2F89EE94E00E94B107CF910C9469
:100FF0007306EF92FF920F931F93CF93DF93E82E28
:10100000F62ED0E0C0E0042F10E08C2F8E0DC0171C
:10101000D1072CF46F2D0E94E0072196F6CFDF91C7
:10102000CF911F910F91FF90EF90089590E080E095
:101030000895CF93C82F88E090E00E94E8036C2FBA
:101040008CE494E00E949B038CE494E0CF910C9498
:10105000ED03CF92DF92EF92FF92CF93DF93EC01FB
:101060000E94EC026B017C01E881F981309711F05C
:1010700081E009958CE494E00E94370397FF0DC04E
:101080000E94EC026C197D098E099F096436710576
:101090008105910548F38FEF9FEFDF91CF91FF908E
:1010A000EF90DF90CF900895CF92DF92EF92FF9272
:1010B0000F931F93CF93DF938CE494E00E94590326
:1010C000181619060CF09BC080E795E00E942908CD
:1010D000019791F780E795E00E942908019709F0B0
:1010E0008EC080E795E00E9429088C01C1E097FD41
:1010F0002AC080E795E00E9429087C01019780972B
:1011000008F061C084E3C82E85E0D82E80E795E022
:101110000E942908F60181936F01C0E097FDC5E0A8
:10112000C601845395408E159F055CF0C1110BC01C
:1011300080E795E00E9429089C0197FF46C0C3E024
:1011400002C0CC2319F3D0914C0584E090E00E94BA
:10115000E8036D2F8CE494E00E949B036C2F2AC05F
:1011600080914C0590914D05C4E0E217130659F7A4
:10117000803891051CF090E080E001C001960817CE
:10118000190719F00F3F110581F4C4E3D5E0CE0132
:10119000845395408E159F0524F489910E94E001A7
:1011A000F6CF10934D0500934C0583E090E00E942C
:1011B000E803602F8CE494E00E949B038CE494E0AD
:1011C0000E94ED0379CFC2E0BECFF801EA57FE4F8F
:1011D000E491C7018E27FC01EA57FE4FE491A4E396
:1011E000B5E0CD01845395408E159F050CF0B8CF26
:1011F0009D91E927F0E0EA57FE4FE491F2CFDF91AD
:10120000CF911F910F91FF90EF90DF90CF900895B5
:10121000CF92DF92EF92FF92CF93DF931F92CDB7E1
:10122000DEB70E94EC026B017C01E0917005F09149
:101230007105309711F080E0099580916F05882342
:1012400079F01982CE0101960E94FA01898190E01D
:101250000F90DF91CF91FF90EF90DF90CF900895A6
:101260000E9454080E94EC026C197D098E099F09A6
:101270006039714081059105C0F280916F0581113F
:10128000D4CF8FEF9FEFE4CF0F931F930E94EC0218
:101290000091220510912305209124053091250508
:1012A000601B710B820B930B009126051091270593
:1012B00020912805309129050617170728073907B7
:1012C00050F40E94EC0260932205709323058093F2
:1012D0002405909325051F910F91089580E00E94A9
:1012E00019088CE494E00C94ED030F9370E0FB017B
:1012F000EE0FFF1FE60FF71FE45CFC4F0083218316
:1013000042830F9108952F923F924F925F926F9276
:101310007F928F929F92AF92BF92CF92DF92EF9285
:10132000FF920F931F93CF93DF93CDB7DEB7C45CCB
:10133000D1090FB6F894DEBF0FBECDBF6DB67EB635
:101340009E012F5F3F4F290180ECD9011D928A95A4
:10135000E9F7ECE3F3E0A9018181DA018D93AD01B6
:101360008081DF968C93DF97CD0181589F4F22813A
:10137000DC012C933396B3E0EC3FFB0769F7F12CCB
:10138000E12CE0E2CF53DF4FE883C15CD040D12CA9
:10139000C12C2DB73EB7CE53DF4F39832883C25CB3
:1013A000D04060E0C114D10441F0CF53DF4F388109
:1013B000C15CD040303221F461E08DEF0E94E00743
:1013C000C60163E070E00E94E819CC53DF4F8883C8
:1013D000C45CD0402E2D30E02F5F3F4F62EF6203A0
:1013E000A001639F500D1124413C5F4F0CF4DDC000
:1013F000AEE0EA9E702D11246EE0062F10E0A801E9
:1014000041505109EDB7FEB7E01BF10B0FB6F89450
:10141000FEBF0FBEEDBF2DB73EB72F5F3F4FF901A7
:10142000119241505109E0F7D90146E0880F991F08
:101430004A95E1F7870F911D50E040E0FA01E80F6F
:10144000F91FE40DF51D70817D934F5F5F4F4017CD
:101450005107A4F34801BFEF8B1A9B0AC401019600
:10146000EDB7FEB7E81BF90B0FB6F894FEBF0FBE41
:10147000EDBF4DB75EB74F5F5F4F5A011182329695
:10148000C80111920197E8F7F50190E080E04F2D37
:1014900050E01A017FEF271A370AD901A80FB91FA8
:1014A000841795070CF48CC04817590721F02816AB
:1014B000390609F07DC0108201963196881699068A
:1014C00064F7683031F4D50118961C921897199674
:1014D0001C9281E080932804B4E7B0934A041092F0
:1014E000290410924B04CF53DF4F6881C15CD04078
:1014F00089EE94E00E94B107A8014E5F5F4FB501ED
:1015000089EE94E00E9484070E947306CC53DF4F5B
:10151000E881C45CD040E23019F4F3E0FF0EE394BC
:10152000CF53DF4F2881C15CD040205FCF53DF4FC6
:101530002883C15CD040203A31F430E2CF53DF4FF2
:101540003883C15CD040CE53DF4F48815981C25CA3
:10155000D0400FB6F8945EBF0FBE4DBF5FEFC51A07
:10156000D50A6FE0C616D10409F013CF0FB6F89470
:101570007EBE0FBE6DBECC53DF4F0FB6F894DEBFFC
:101580000FBECDBFDF91CF911F910F91FF90EF90D4
:10159000DF90CF90BF90AF909F908F907F906F9093
:1015A0005F904F903F902F90089568E078E325CFAB
:1015B000281639060CF080CFDC011297A20FB31F5A
:1015C0007C91708379CF0C948309FC0101900020F9
:1015D000E9F73197AF01481B590BBC018CE494E04B
:1015E0000C94FB020F931F93CF93DF938C01D0E0F9
:1015F000C0E0F801EC0FFD1F6491662341F08CE41C
:1016000094E00E949B03892B11F02196F2CF89E18F
:1016100092E00E94E50A8C0F9D1FDF91CF911F91F0
:101620000F9108950F931F93CF93DF938C01EC01DB
:1016300009900020E9F72197C81BD90B86E090E0BC
:101640000E94E803CE010E94E803C8010E94E50A57
:1016500080E290E00E94E8038CE494E0DF91CF9177
:101660001F910F910C94ED03CF93DF93EC018881D0
:101670009981009711F00E94B21A198218821D8276
:101680001C821B821A82DF91CF910895FC01808118
:101690009181009711F00C94B21A08950F931F9343
:1016A000CF93DF93EC0188819981009759F02A81CB
:1016B0003B812617370730F081E0DF91CF911F91F2
:1016C0000F9108958B016F5F7F4F0E943B1B009726
:1016D00059F0998388831B830A832C813D81232BB6
:1016E00059F7FC011082E8CF80E0E7CFEF92FF923C
:1016F0000F931F93CF93DF93EC017B011982188224
:101700001B821A821D821C82FB0101900020E9F7D6
:1017100031978F01061B170BB8010E944E0B8111E8
:1017200009C0CE01DF91CF911F910F91FF90EF90F3
:101730000C94340B1D830C83B70188819981DF9150
:10174000CF911F910F91FF90EF900C94121C85ED9B
:101750008093BC008091240490912504A0912604DC
:10176000B09127040796A11DB11D23E0B695A7955A
:10177000979587952A95D1F72091BC0024FD03C049
:101780001092220408954091240450912504609100
:10179000260470912704452B462B472B69F30097AD
:1017A000A105B10541F02AE22A95F1F700C00197A1
:1017B000A109B109E1CF809123040C9452061F9234
:1017C0000F920FB60F9211242F933F938F939F93F5
:1017D000AF93BF938091340390913503A09136036A
:1017E000B09137033091330323E0230F2D3758F5A1
:1017F0000196A11DB11D2093330380933403909370
:101800003503A0933603B09337038091380390914A
:101810003903A0913A03B0913B030196A11DB11D7C
:101820008093380390933903A0933A03B0933B031A
:10183000BF91AF919F918F913F912F910F900FBECC
:101840000F901F90189526E8230F0296A11DB11D39
:10185000D2CF1F920F920FB60F9211242F933F9366
:101860004F935F936F937F938F939F93AF93BF93A8
:10187000EF93FF938CE494E00E947903FF91EF9142
:10188000BF91AF919F918F917F916F915F914F9198
:101890003F912F910F900FBE0F901F9018951F92A0
:1018A0000F920FB60F9211242F938F939F93EF9364
:1018B000FF93E0915C04F0915D048081E09162040B
:1018C000F091630482FD1BC09081809165048F5F5D
:1018D0008F7320916604821741F0E0916504F0E077
:1018E000E45BFB4F958F80936504FF91EF919F918F
:1018F0008F912F910F900FBE0F901F9018958081A0
:10190000F4CF1F920F920FB60F9211242F933F9393
:101910004F935F936F937F938F939F93AF93BF93F7
:10192000EF93FF938091B900887F803609F44AC015
:10193000F0F5883209F4A7C018F5803109F49BC08E
:10194000B8F4882309F4F9C0883009F494C0FF91F1
:10195000EF91BF91AF919F918F917F916F915F9127
:101960004F913F912F910F900FBE0F901F901895A0
:10197000883109F488C0803251F78093200414C064
:10198000803409F49DC040F48033B9F38833F9F60C
:101990008093200485ECB0C0803509F485C088357B
:1019A00009F496C0883499F60E94A70BD0CF8839E5
:1019B00009F48CC038F5883729F050F4883611F0D6
:1019C000803729F683E08093220410920F0357C0DA
:1019D000883809F47BC0803919F0803809F0B7CF16
:1019E00080910F03803208F071C0E0910F0381E015
:1019F0008E0F80930F038091BB00F0E0E151FD4F0B
:101A000080833DC0803B39F0E0F4803A09F479C02E
:101A1000883A09F09CCF84E0809322041092EE0271
:101A20001092ED02E0911203F09113030995809159
:101A3000ED0281110FC081E08093ED021092CD0282
:101A400009C0803C09F4A6CF883C09F4A3CF883BA9
:101A500009F07DCFE091EE0281E08E0F8093EE02DF
:101A6000F0E0E353FD4F80818093BB009091EE0244
:101A70008091ED0229C08091FD038093BB0085EC2D
:101A80008093BC0064CF90911F0480911E0498172E
:101A900058F5E0911F0481E08E0F80931F04F0E061
:101AA000E250FC4F8081E9CFE0911F0481E08E0F6E
:101AB00080931F048091BB00F0E0E250FC4F8083D4
:101AC00090911F0480911E049817C8F285E8D8CF22
:101AD000E0911F0481E08E0F80931F048091BB0072
:101AE000F0E0E250FC4F80838091210481115CCFB3
:101AF00081E08093FC0384EA8093BC00109222046E
:101B000026CF85EC8093BC001092220480910F03B5
:101B1000803230F4E0910F03F0E0E151FD4F10828C
:101B200060910F0370E0E0911003F09111038FEECC
:101B300092E0099510920F030ACF1092200434CF3F
:101B40000F931F93CF93DF938C01EC01099000203A
:101B5000E9F72197C81BD90B86E090E00E94E803C3
:101B6000CE0101960E94E803C8010E94E50A8AE0BE
:101B700090E00E94E80380E290E00E94E8038CE499
:101B800094E0DF91CF911F910F910C94ED03FC0134
:101B900080819181009711F00C94E01760E070E073
:101BA000CB010895FC0124813581232B39F421E0F8
:101BB000FB018081882349F020E007C0808191816A
:101BC0000E94091C21E0892BB9F7822F0895FC019E
:101BD00024813581FB014481558124173507E1F4C7
:101BE000FC0180819181FB01608171810097D1F0BE
:101BF00061157105A1F4232BC1F0FC01808190E0F7
:101C000008C0232B91F0FB01808190E09195819594
:101C1000910921E0892B09F020E0822F08950E948C
:101C2000091CF7CF6115710561F721E0F6CFEF923E
:101C3000FF920F931F93CF93DF9300D0CDB7DEB702
:101C40008C016BE172E00E94760B0E94080997FDFF
:101C500021C08B339105F1F089831A82F801E48069
:101C6000F580FFEFEF1AFF0AB701C8010E944E0B83
:101C7000882359F3F8012081318184819581BE0147
:101C80006F5F7F4F820F931F0E94121CF801F58235
:101C9000E482DBCFC8010F900F90DF91CF911F91AD
:101CA0000F91FF90EF900895BF92CF92DF92EF9245
:101CB000FF920F931F93CF93DF937C016B018A01F7
:101CC0004617570720F48D2D6A01062F182F6BE158
:101CD00072E0C7010E94760BC0911405D0911505E2
:101CE000CC16DD0668F50C171D0708F4E801E09135
:101CF0001005F0911105EC0FFD1FB08010820091CE
:101D00001005109111050C0D1D1D0115110571F027
:101D1000F80101900020E9F731976F01C01AD10A4C
:101D2000B601C7010E944E0B811115C0C7010E9468
:101D3000340B8091100590911105C80FD91FB882FE
:101D4000C701DF91CF911F910F91FF90EF90DF902E
:101D5000CF90BF900895F701D582C482B8018081E9
:101D600091810E94121CE5CFEF92FF920F931F9377
:101D7000CF93DF93EC018B01198218821B821A82A8
:101D80001D821C82CB010E940E187C01BC01CE0179
:101D90000E944E0B811109C0CE01DF91CF911F919E
:101DA0000F91FF90EF900C94340BFD82EC82B80100
:101DB00088819981DF91CF911F910F91FF90EF90D2
:101DC0000C940718CF93DF93ECE4F4E013821282B3
:101DD00088EE93E0A0E0B0E084839583A683B78388
:101DE00021EF31E03183208325EC30E035872487F3
:101DF00024EC30E03787268720EC30E0318B208BD5
:101E000021EC30E0338B228B22EC30E0358B248BBD
:101E100026EC30E0378B268B118E128E138E148EAB
:101E2000E9EEF4E01382128284839583A683B7835C
:101E300083E092E091838083E4E3F5E08FEF90E02C
:101E4000918F808F12AE13AE15AE14AEEAE2F5E0BC
:101E500085E192E091838083168217821086118635
:101E6000E2E2F5E010821182128213828AE090E0B1
:101E7000A0E0B0E084839583A683B7836BE172E032
:101E80008CE195E00E94760B6BE172E086E195E0D3
:101E90000E94760B6BE172E080E195E00E94760B88
:101EA000CCEFD4E089E08A8B61E00E94180261E007
:101EB0008A890E94640285EF94E0998B888B6BE19C
:101EC00072E086EF94E0DF91CF910C94760BCF9384
:101ED000DF93CDB7DEB72E970FB6F894DEBF0FBEF7
:101EE000CDBF789484B5826084BD84B5816084BDA3
:101EF00085B5826085BD85B5816085BD80916E00A8
:101F0000816080936E0010928100809181008260D8
:101F10008093810080918100816080938100809115
:101F200080008160809380008091B1008460809304
:101F3000B1008091B00081608093B00080917A0000
:101F4000846080937A0080917A00826080937A0026
:101F500080917A00816080937A0080917A00806815
:101F600080937A001092C10060E07BE480E090E012
:101F70000E94720180E490E090932D0580932C05DF
:101F800010922F0510922E05109215031092140333
:101F90001092290410924B040E94340689EF92E0BB
:101FA00090931303809312038AEF92E090931103AE
:101FB000809310036BE08DEF0E94E00760E08AE001
:101FC0000E94E00760E181E00E94E00764EE8DE09E
:101FD0000E94E00761E08EE00E94E00764E484E193
:101FE0000E94E00764E885E10E94E00769E98FE06C
:101FF0000E94E00760E08DEF0E94E00743EB60E0A5
:1020000080E00E94F90761E08DEF0E94E00743EB5A
:1020100060E080E00E94F9076DE08DEF0E94E0072C
:10202000BDEAEB2EB1E0FB2E10E0F70161917F01DC
:10203000812F0E94E0071F5F1034B9F76BE08DEF2E
:102040000E94E00761E08AE00E94E00760E08DEF17
:102050000E94E00740E16FEF80E00E94F90740E84E
:1020600060E080E20E94F90761E08DEF0E94E007E6
:1020700040E16FEF80E00E94F90740E860E080E215
:102080000E94F9071FB7F89480911603811127C0A9
:10209000E4E5F1E08491E8E6F1E09491E82FF0E0E6
:1020A000EE0FFF1FEA5CFE4FA591B491EC91E9237E
:1020B00021F461E08AE00E94180261E08AE00E9457
:1020C00064028CB580618CBD8CB580648CBD61E090
:1020D0008DE00E94640261E08BE00E9464028091C6
:1020E00016038F5F809316031FBF80E591E00E9467
:1020F0006F0160E080910E050E94180280EC0E9442
:102100000E0461E080910E050E94180265E070E007
:1021100080E090E00E94BA0280E480930F0580E89E
:102120000E947904882309F403C283ED90E00E94A1
:10213000F20A60E082E00E94640284E499E09093F5
:1021400071058093700576E6472E512C612C712C19
:102150006DE0262E312C0E94EC022AE030E040E0B7
:1021600050E00E941B19663071058105910508F445
:10217000C6C0109117032091190330911A03032E42
:10218000000C440B550B2053310941095109A4E6B9
:10219000B0E00E94D918A30192010E94BA182C59EC
:1021A0003F4F4F4F5F4F8DE589832A831B831C82EE
:1021B0001D821E821F8218869E012F5F3F4F48E0BE
:1021C00060ED71E080E090E00E941A0580912503A7
:1021D000909126036091440170914501019709F0A7
:1021E00015C290E080E02AE331E045E00E941A0544
:1021F00080913E018F5F80933E0180912D039091ED
:102200002E03880F991F880F991F80937701909351
:102210007801609171017091720190E080E023E794
:1022200031E048E00E941A0500918F011091900161
:1022300080912B0390912C03080F191F60918D0141
:1022400070918E017F7090E080E00E942C1823E650
:1022500034E14DE953E40E944D190E94B9190093ED
:102260008701109388010093890110938A010093DC
:102270008B0110938C0160938D01706F70938E01B0
:10228000609185017091860190E080E027E831E05F
:1022900048E00E941A051093900100938F0110925C
:1022A000940110929501609191017091920190E0DA
:1022B00080E023E931E047E00E941A056091460181
:1022C0007091470190E080E028E431E048E00E940E
:1022D0001A0560915A0170915B0190E080E02CE555
:1022E00031E048E00E941A0560915001709151015F
:1022F00090E080E022E531E047E00E941A050E946C
:10230000EC0228EC30E040E050E00E941B196536FA
:1023100071058105910508F494C080912503909181
:102320002603019709F47FC190E080E0209101012C
:1023300021118062209122032111826020910201EB
:10234000211180648093680160916B0170916C0130
:1023500090E080E028E631E043E00E941A056091B9
:1023600066017091670190E080E024E631E042E090
:102370000E941A058091170190E0807F9927C096EE
:10238000836080931701609113017091140190E0B4
:1023900080E025E131E048E00E941A0560911D01CE
:1023A00070911E0190E080E02FE131E042E00E9458
:1023B0001A0580911F018F5F806F80931F016091CC
:1023C00021017091220190E080E023E231E042E0BF
:1023D0000E941A05809123018F5F809323018091D1
:1023E00017039091180301968F3F910509F41EC1C0
:1023F00090931803809317032091290330912A03A7
:1024000040E5429FC001439F900D11248D3DFEE1A8
:102410009F0714F08CED9EE18C599F4F809325010E
:1024200090932601809327019093280160912A01BF
:1024300070912B0190E080E025E231E045E00E94C0
:102440001A050E94EC020E94EC0224EF31E040E009
:1024500050E00E941B19653671058105910598F0C1
:1024600080911F03882309F4E6C08EEF80932E012C
:1024700060912C0170912D0190E080E02EE231E01E
:1024800042E00E941A050E94EC0228EE33E040E090
:1024900050E00E941B19653F71408105910588F04D
:1024A00080910501885D880F80936D0160916F01B7
:1024B0007091700190E080E02DE631E042E00E94F2
:1024C0001A05E0917005F0917105309711F080E0E8
:1024D000099580916F05811102C00E945408809176
:1024E0006F05882309F421C10E940809039709F0A8
:1024F0001CC10E94EC0260932F0370933003809301
:102500003103909332030E940809813309F095C08A
:102510000E9408096AE070E080E090E00E94BA0240
:102520008AE60E9419088CE494E00E94ED03FDC045
:102530008BEA90E00E94F20A61E88AE20E94F904C4
:1025400066EF89E20E94F90464E888E20E94F904D7
:102550008EE890E00E94F20A61E080E20E94DD04D1
:1025600061E084E20E94DD0461E080E00E94DD041D
:1025700060E084E00E94DD0461E088E00E94DD0408
:1025800060E080E10E94DD0461E084E10E94DD04FE
:1025900060E088E10E94DD0410E360E0812F0E948A
:1025A000F90460E080E1810F0E94F90460E080E2BC
:1025B000810F0E94F9041F5F1E3379F760E080E607
:1025C0000E94F90460E080E70E94F90463E08BE276
:1025D0000E94F9046CE38CE00E94F90460E08DE055
:1025E0000E94F90444E664E680E60E94360440E670
:1025F00060E680E70E94360480910F050E9479040E
:10260000882309F4C7C488E690E091CD90E080E08B
:102610002FE331E045E00E941A05809143018F5F6E
:1026200080934301EACD84E090E080CE10921803BD
:1026300010921703E1CE8DEF19CF883309F0D0C087
:102640000E9408098C0168EC70E080E090E00E9434
:10265000BA026CE271E080E090E00130110539F0DF
:102660000230110509F560EB74E080E090E00E9413
:1026700072010630110509F560E478E380E090E02E
:102680000E9472010B30110509F560E072EC81E0E7
:1026900090E00E94720160E47DE083E090E0003110
:1026A000110509F440C01BC00330110501F560E6B7
:1026B00079E080E090E00E9472010730110509F591
:1026C00060E07BE480E090E00E9472010C30110534
:1026D00011F560E074E883E090E00E94720101313E
:1026E000110519F560E271EA87E090E01CC0043042
:1026F000110509F046C060EC72E180E090E00E94B4
:1027000072010830110509F059C060E870E780E0F7
:1027100090E00E94720160E970ED83E090E00D307E
:10272000110509F054C00E9472010E94EC02009150
:102730002F03109130032091310330913203601B3D
:10274000710B820B930B693873418105910508F475
:1027500014C420912C0530912D0590E080E0821763
:1027600093070CF008C4AC015527FA01EE0FFF1FC8
:10277000E40FF51FE45CFC4F108211821282019677
:10278000EECF0530110509F074CF60E875E280E006
:1027900090E00E9472010A30110509F073CF60E0E9
:1027A00071EE80E090E00E94720160E874E88EE1D2
:1027B00090E00F30110509F4B6CF6DCF0930110547
:1027C00051F760E076E980E090E00E94720160E4F9
:1027D00072E48FE090E00E30110509F4A4CFE5CF4C
:1027E0008A3419F40E946E09A0CF823319F40E9432
:1027F0006E099BCF823419F40E946E0996CF813402
:1028000011F483E08ECE8E3449F48CE192E00E9484
:10281000120B8AE192E00E94120B85CE893419F4E2
:102820008AE392E0F4CF803309F56AE070E080E05B
:1028300090E00E94BA0288E592E00E94120B8AE8BA
:1028400092E00E94120B8AE592E00E94120B8CE546
:1028500092E00E94120B8EE592E00E94120B80E63D
:1028600092E00E94120B86E592E0D1CF833309F407
:102870005CCF863509F459CF833509F456CF8433BC
:1028800019F40E946E0951CF863321F485E10E942C
:1028900019084BCF823509F0B5C00E9408091816F7
:1028A00019060CF0A4C08130910581F5F12C0F2D93
:1028B00010E080912C0590912D05081719076CF7F1
:1028C0000E940809E82E0E940809D82E0E940809D3
:1028D00020912E0530912F052130310589F420916A
:1028E0002C0521502F1930E0F901EE0FFF1FE20FE8
:1028F000F31FE45CFC4F8083D182E282F394D7CF54
:10290000F801EE0FFF1FE00FF11FF3CF82309105AA
:10291000A1F50E9408098C010E940809D02E080F19
:10292000191FED2CF12CE016F1060CF0B6CF0E9429
:102930000809C82E0E940809B82E0E940809209193
:102940002E0530912F052130310589F420912C0579
:1029500021502D1930E0F901EE0FFF1FE20FF31F98
:10296000E45CFC4F8083B182C282D394DACFF7015A
:10297000EE0FFF1FEE0DFF1DF3CF039709F08DCF74
:102980000E9408096C010E9408098C010E94080934
:10299000F82E0E940809E82E0E9408099C2D4091FB
:1029A0002E0550912F05A0912C05A1500C0D1D1D39
:1029B000292F30E0201731070CF06FCF413051053F
:1029C00081F46A2F691B70E09B01220F331F260FD1
:1029D000371FF901E45CFC4F8083E182F2829F5F44
:1029E000E7CFF901EE0FFF1FE20FF31FF3CF809146
:1029F0002C0590912D05181619060CF047CF0E9452
:102A0000830944CF8D3409F490CE873419F40E94A1
:102A100008098BCE95EB980F923008F486CE80355E
:102A200009F0B4C1CE0101960E94170ECE010196A5
:102A30000E94C70D70932E0360932D03CE01019663
:102A40000E94460BCE0101960E94170ECE01019600
:102A50000E94C70D70932C0360932B03CE01019647
:102A60000E94460BCE0101960E94170E8091100520
:102A700090911105009709F448C169817A81611527
:102A8000710509F440C140911205509113052D8143
:102A90003E814217530708F436C10E94121C8D81F3
:102AA0009E8190931505809314051E821D82CE0190
:102AB00001960E94460BCE0101960E94170ECE0190
:102AC00001960E94C70D70932A0360932903CE01DB
:102AD00001960E94460BCE0101960E94170ECE0170
:102AE00001960E94C70D7093280360932703CE01BF
:102AF00001960E94460BCE0101960E94170ECE0150
:102B000001960E94C70D7B01CE0101960E94460BE3
:102B1000CE0101960E94170ECE0101960E94C70DAC
:102B20008B01CE0101960E94460B80912703909164
:102B300028038130910509F0FFC09093260380930C
:102B400025034BE050E070E060E0CE0101960E946A
:102B5000540E62E672E0CE0101960E94D20DD82E8C
:102B6000CE0101960E94460BDD2009F4EAC03092A6
:102B700024032092230381E080932203C090230347
:102B8000D0902403A601445F5F4FB601CE010196A9
:102B90000E94540E6EE672E0CE0101960E94D20DA4
:102BA000B82ECE0101960E94460BBB2009F4D0C07E
:102BB0008EE090E0909321038093200381E0809346
:102BC0001F036091200370912103C60ED71EA6013A
:102BD0004B5F5F4FB601CE0101960E94540E6BE72A
:102BE00072E0CE0101960E94D20DB82ECE01019660
:102BF0000E94460BBB2009F4B2C0E7E0F0E0F0937E
:102C00001E03E0931D0360911D0370911E03C60E09
:102C1000D71EA601465F5F4FB601CE0101960E9406
:102C2000540E61E872E0CE0101960E94D20DB82EDA
:102C3000CE0101960E94460BBB2009F495C08CE0A2
:102C400090E090931C0380931B0360911B03709191
:102C50001C036C0D7D1DAB014A5F5F4FCE010196D9
:102C60000E94540ECE0101960E94460B6CE872E061
:102C7000CE0101960E94760B8091FA049091FB049C
:102C80002D813E818217930701F5892B09F471C0CC
:102C9000A090F604B090F704C980DA80F501819124
:102CA0005F01882309F465C0082E000C990B0E946F
:102CB000F81B4C01F60181916F01082E000C990B55
:102CC0000E94F81B8816990649F3D12CCE01019673
:102CD0000E94460BDD2031F08AE590E090931A03C4
:102CE0008093190391E0E916F10409F045C081E9E8
:102CF0000115110509F447C081EB0130110509F4F4
:102D000042C080E840C00E94B21A89819A819093A3
:102D10001105809310058B819C81909313058093FE
:102D200012058D819E8190931505809314051A825A
:102D300019821C821B82B9CE1092260310922503A1
:102D400000CF10922403109223031092220316CF77
:102D5000109221031092200310921F0332CF109281
:102D60001E0310921D034FCF10921C0310921B03E1
:102D70006CCFDD24D394AACFEF2819F601301105CA
:102D800009F0BFCF81EA8093640180CD883509F0D6
:102D9000CCCC6BE172E0CE0109960E94760B0E94CA
:102DA000080997FD21C080329105F1F08A30910524
:102DB000D9F089831A820D851E850F5F1F4FB801D8
:102DC000CE0109960E944E0B882349F329853A8546
:102DD0008D859E85BE016F5F7F4F820F931F0E947E
:102DE000121C1E870D87DBCF61E371E0CE010196D7
:102DF0000E94B40EBE016F5F7F4FCE0109960E9404
:102E0000E70D182FCE0101960E94460B1123A1F069
:102E100089E992E00E94A00D81EA92E00E94A00D53
:102E20008AE00E9419088CE494E00E94ED03CE0130
:102E300009960E94460B79CC69E271E0CE010196B9
:102E40000E94B40EBE016F5F7F4FCE0109960E94B3
:102E5000E70D182FCE0101960E94460B112341F079
:102E60008EE10E94190885E90E9419088FE0D9CFE8
:102E700064E271E0CE0101960E94B40EBE016F5F64
:102E80007F4FCE0109960E94E70D182FCE010196C3
:102E90000E94460B1111CBCF6DE171E0CE0101967E
:102EA0000E94B40EBE016F5F7F4FCE0109960E9453
:102EB000E70D182FCE0101960E94460B1111B7CFD6
:102EC00067E171E0CE0101960E94B40EBE016F5F12
:102ED0007F4FCE0109960E94E70D182FCE01019673
:102EE0000E94460B1111A3CF62E171E0CE01019661
:102EF0000E94B40EBE016F5F7F4FCE0109960E9403
:102F0000E70D182FCE0101960E94460B11118FCFAD
:102F10006DE071E0CE0101960E94B40EBE016F5FBC
:102F20007F4FCE0109960E94E70D182FCE01019622
:102F30000E94460B11117BCF68E071E0CE01019633
:102F40000E94B40EBE016F5F7F4FCE0109960E94B2
:102F5000E70D182FCE0101960E94460B111167CF85
:102F60006AEF70E0CE0101960E94B40ECE01019688
:102F70000E94460B5CCF0E94830980E090E0892B81
:102F800009F4E9C80E946503882309F4E1C80E9496
:102F90000000DEC810920F0580E00E947904C9C8C5
:102FA00086EF94E00E94460B80E195E00E94460B7C
:102FB00086E195E00E94460B8CE195E00C94460B6F
:102FC0001F93FC0199278827BC01E89411911032C6
:102FD000E9F3193010F01E30C8F31B3251F01D32E6
:102FE00049F4689406C00E941718610F711D811D75
:102FF000911D119110531A30B0F33EF490958095C5
:10300000709561957F4F8F4F9F4F1F910895FB01E2
:10301000DC0105900D920020E1F70895FC01059078
:103020000020E9F7809590958E0F9F1F0895592FE6
:10303000482F372F262F660F771F881F991F660F7F
:10304000771F881F991F620F731F841F951F660FBC
:10305000771F881F991F0895E89409C097FB3EF4D5
:1030600090958095709561957F4F8F4F9F4F9923D5
:10307000A9F0F92F96E9BB279395F6958795779553
:103080006795B795F111F8CFFAF4BB0F11F460FF13
:103090001BC06F5F7F4F8F4F9F4F16C0882311F06B
:1030A00096E911C0772321F09EE8872F762F05C07F
:1030B000662371F096E8862F70E060E02AF09A951A
:1030C000660F771F881FDAF7880F9695879597F90F
:1030D000089597F99F6780E870E060E008959FEF9A
:1030E00080EC089500240A9416161706180609069F
:1030F000089500240A94121613061406050608956E
:10310000092E0394000C11F4882352F0BB0F40F4F5
:10311000BF2B11F460FF04C06F5F7F4F8F4F9F4F35
:10312000089557FD9058440F551F59F05F3F71F0B7
:103130004795880F97FB991F61F09F3F79F087951E
:103140000895121613061406551FF2CF4695F1DFA7
:1031500008C0161617061806991FF1CF8695710537
:10316000610508940895E894BB2766277727CB016B
:1031700097F90895052E97FB1EF400940E94D1182C
:1031800057FD07D00E941B1907FC03D04EF40C9486
:10319000D11850954095309521953F4F4F4F5F4F37
:1031A000089590958095709561957F4F8F4F9F4FB3
:1031B00008950E943D19A59F900DB49F900DA49F66
:1031C000800D911D112408952F923F924F925F928E
:1031D0006F927F928F929F92AF92BF92CF92DF9227
:1031E000EF92FF920F931F93CF93DF93CDB7DEB78C
:1031F000CA1BDB0B0FB6F894DEBF0FBECDBF099420
:103200002A88398848885F846E847D848C849B8476
:10321000AA84B984C884DF80EE80FD800C811B8184
:10322000AA81B981CE0FD11D0FB6F894DEBF0FBEB3
:10323000CDBFED010895A1E21A2EAA1BBB1BFD0113
:103240000DC0AA1FBB1FEE1FFF1FA217B307E40785
:10325000F50720F0A21BB30BE40BF50B661F771FDD
:10326000881F991F1A9469F76095709580959095BD
:103270009B01AC01BD01CF010895A29FB001B39F96
:10328000C001A39F700D811D1124911DB29F700D6F
:10329000811D1124911D08955058BB27AA270E9413
:1032A00064190C9480180E94721838F00E947918E2
:1032B00020F039F49F3F19F426F40C946F180EF4A3
:1032C000E095E7FB0C946918E92F0E94911858F3D8
:1032D000BA17620773078407950720F079F4A6F5FB
:1032E0000C94B3180EF4E0950B2EBA2FA02D0B0101
:1032F000B90190010C01CA01A0011124FF27591B3B
:1033000099F0593F50F4503E68F11A16F040A22F40
:10331000232F342F4427585FF3CF469537952795B1
:10332000A795F0405395C9F77EF41F16BA0B620BB0
:10333000730B840BBAF09150A1F0FF0FBB1F661FF7
:10334000771F881FC2F70EC0BA0F621F731F841F3A
:1033500048F4879577956795B795F7959E3F08F060
:10336000B0CF9395880F08F09927EE0F9795879522
:1033700008950E94991888F09F5798F0B92F9927BF
:10338000B751B0F0E1F0660F771F881F991F1AF050
:10339000BA95C9F714C0B13091F00E94B318B1E0EA
:1033A00008950C94B318672F782F8827B85F39F0E9
:1033B000B93FCCF3869577956795B395D9F73EF4E9
:1033C00090958095709561957F4F8F4F9F4F089591
:1033D00097FB072E16F4009407D077FD09D00E94C2
:1033E000FC1907FC05D03EF4909581959F4F0895F8
:1033F000709561957F4F0895AA1BBB1B51E107C0D3
:10340000AA1FBB1FA617B70710F0A61BB70B881F74
:10341000991F5A95A9F780959095BC01CD01089503
:10342000EE0FFF1F0590F491E02D09940F931F9369
:10343000CF93DF938230910510F482E090E0E09129
:103440007405F091750530E020E0B0E0A0E0309721
:1034500099F42115310509F44AC0281B390B243091
:103460003105D8F58A819B816115710589F1FB01D0
:1034700093838283FE0111C04081518102811381B7
:1034800048175907E0F04817590799F4109761F069
:1034900012960C93129713961C933296CF01DF91DC
:1034A000CF911F910F9108950093740510937505A6
:1034B000F4CF2115310551F04217530738F0A90117
:1034C000DB019A01BD01DF01F801C1CFEF01F9CFA6
:1034D0009093750580937405CDCFFE01E20FF31F25
:1034E000819391932250310939832883D7CF20913A
:1034F000720530917305232B41F42091A601309180
:10350000A70130937305209372052091A401309197
:10351000A5012115310541F42DB73EB74091A80111
:103520005091A901241B350BE0917205F0917305B0
:10353000E217F307A0F42E1B3F0B2817390778F08A
:10354000AC014E5F5F4F2417350748F04E0F5F1FE9
:103550005093730540937205819391939FCFF0E050
:10356000E0E09CCFCF93DF930097E9F0FC01329726
:1035700013821282A0917405B0917505ED0130E0BF
:1035800020E01097A1F420813181820F931F2091B8
:103590007205309173052817390709F061C0F0935F
:1035A0007305E0937205DF91CF910895EA01CE177C
:1035B000DF07E8F54A815B819E0141155105B1F7AE
:1035C000E901FB83EA8349915991C40FD51FEC1798
:1035D000FD0761F4808191810296840F951FE901B6
:1035E00099838883828193819B838A83F0E0E0E0E2
:1035F00012968D919C9113970097B9F52D913C915E
:103600001197CD010296820F931F20917205309180
:1036100073052817390739F6309751F5109275055B
:1036200010927405B0937305A0937205BCCFD38339
:10363000C28340815181840F951FC817D90761F457
:103640004E5F5F4F88819981480F591F5183408396
:103650008A819B81938382832115310509F0B0CF44
:10366000F0937505E09374059ECFFD01DC01C0CF9A
:1036700013821282D7CFB0E0A0E0E1E4FBE10C942A
:10368000E6188C01009751F4CB010E94161A8C01A8
:10369000C801CDB7DEB7E0E10C940219FC01E60FDA
:1036A000F71F9C0122503109E217F30708F49DC06F
:1036B000D901CD91DC911197C617D70798F0C53085
:1036C000D10530F3CE0104978617970708F3C61B80
:1036D000D70B2297C193D1936D937C93CF010E9416
:1036E000B21AD6CF5B01AC1ABD0A4C018C0E9D1EDE
:1036F000A0917405B0917505512C412CF12CE12C51
:10370000109731F580917205909173058815990590
:1037100009F05CC04616570608F058C08091A40115
:103720009091A501009741F48DB79EB74091A801F3
:103730005091A901841B950BE817F90708F055C0B3
:10374000F0937305E0937205F90171836083A0CF54
:103750008D919C91119712966C90129713967C9074
:103760001397A815B90559F56C0142E0C40ED11C98
:10377000CA14DB0420F1AC014A195B09DA01129684
:10378000159780F06282738251834083D9016D93D3
:103790007C93E114F10471F0D7011396FC93EE933E
:1037A000129776CF22968C0F9D1FF901918380830B
:1037B000F301EFCFF0937505E093740569CF4816D8
:1037C000590608F42C017D01D3019ACFCB010E9448
:1037D000161A7C01009749F0AE01B8010E94001C46
:1037E000C8010E94B21A870153CF10E000E050CF09
:1037F0009111089581548A5108F4805E855A089584
:10380000FB01DC0102C001900D9241505040D8F7FD
:103810000895FB01DC018D91019080190110D9F30D
:10382000990B0895FB01DC0101900D920020E1F756
:10383000089511E0C4E4D1E004C0FE010E94101A12
:0C3840002196C534D107C9F7F894FFCFDA
:10384C000100000000451400000A055908000000A2
:10385C000000009E0100E0B3FCF0430065C000F0E6
:10386C00FFD700C3FF000000000049034F03FEFF19
:10387C00920540220031FFFFFFFF4542698FE24174
:10388C0042698FE23001F2044042FF010004000063
:10389C006203A2711EFFFFFFEA00F205080400FD9F
:1038AC00FFFFFF0F80F0F6010000F71A0261FFCA5C
:1038BC0002AA005F59FF00340D8099D0010000006E
:1038CC0000000000FFA601134D464D334DD0FF0004
:1038DC0000C40083FDFC0000FFF19E030B10000DE3
:1038EC001FDF07F200007605800030405050555520
:1038FC005500000000000000001554555500000054
:10390C0000000000005505555500000000000000A7
:10391C00005555415500000000000000005555555C
:10392C00500000000000000000000000000000003B
:10393C00009B03FB022803ED03590337034B0300E1
:10394C00000000B107840716085A077D076A075B59
:10395C0007000000007509E30A0D0A0045395820DC
:10396C00425920434C555354455220534B455443D4
:10397C004845532046524545200068747470733A8C
:10398C002F2F646973636F72642E67672F6E396BA8
:10399C006656747946515200470049004A0050005F
:1039AC005800444C5F46554C4C4245414D00444CEC
:1039BC005F48414E444252414B4500444C5F544396
:1039CC0000444C5F4F494C5741524E006173736534
:1039DC0074746F636F727361006D63757479706565
:0C39EC00006B656570616C697665000019
:00000001FF
